:1000000012C021C03CC21FC05AC21DC01CC01BC0B0
:100010001AC019C018C017C016C015C09FC113C0A0
:1000200012C011C010C011241FBECFE5D4E0DEBF46
:10003000CDBF20E0A0E6B0E001C01D92A237B2071C
:10004000E1F702D0E8C2DCCFCF93DF9300D000D03D
:10005000CDB7DEB71A8219821C821B8243D060E2C0
:1000600080E23DD160E580E546D1E0D1CE01019648
:100070005CD1C980DA8088ECC81AD108AB80BC801A
:1000800088ECA81AB10800E010E0CE0101964DD12D
:1000900089819A818C159D05C8F48B819C818A1574
:1000A0009B05A0F440E56AE570E080E090E080D038
:1000B0000130110549F440E564EB70E080E090E028
:1000C00077D000E010E002C001E010E085E0E82E0B
:1000D000F12C84E208D281E0E81AF108E114F1047D
:1000E000C1F7D3CFDED10ED1EED01FD28CD1789410
:1000F00008953FB7F89420916F0010926F0080919F
:100100006B0090916C00E82F792F3FBF222309F4F8
:1001100045C040916000609162002091650030917F
:1001200066005091610041FD08C0961788F0F92FD4
:10013000F61BFF3160F0426007C0691748F0F62FE8
:10014000F91BFF3120F04D7F2F5F3F4F01C0762F0D
:10015000309366002093650020916700309168001D
:1001600040FF08C05E1778F0652F681B6F3160F0A4
:100170004E7F07C0E51738F0682F651B6F3120F000
:1001800041602F5F3F4F582F709362005093610082
:1001900030936800209367004093600008951092A8
:1001A0006600109265001092680010926700089532
:1001B000DF92EF92FF920F931F93CF93DF93FC0197
:1001C0008B01F42E009789F0DC0197FF04C0AA2769
:1001D000BB27A81BB90B2CEF3EE70BD2EC01F7FFB6
:1001E00002C060E110C060E211C0DB0177FF04C013
:1001F000AA27BB27A61BB70B2EEC3BE6FAD1EC01D6
:1002000017FF03C060E280E102C060E180E267D0D6
:10021000C6DF6F2D8F2D6FD0DF2CEF2C1C161D0627
:10022000A4F500916500109166002091670030915F
:100230006800F801A901C01BD10B2017310750F449
:10024000FE1418F084EF8D1518F486EFE80E02C046
:100250008AE0D80EE417F50750F4FD1418F084EF87
:100260008E1518F486EFD80E02C08AE0E80E97DFEC
:100270006D2D8E2D40D01091710080917100811BE9
:10028000843260F645D135DFF8CF60E080E0DF9161
:10029000CF911F910F91FF90EF90DF902CC0C098ED
:1002A000929880FDC09A81FD929A08952FB7F89494
:1002B000882319F09798A19AA09A95B39C7F982BC0
:1002C00095BB2FBF0895B89A81B3846C81BB969873
:1002D0009798A19AA09A80E0E9DF81E0E0CF2FB75C
:1002E000F89492B39F7C892B82BB88B38F7C682B58
:1002F00068BB2FBF08959FB7F8941BBC8ABD68BD2B
:100300009FBF089587B3866387BB81B3806381BB3A
:1003100081EA8FBD82E08EBD89B7837C89BF60E2B0
:1003200080E2DDDF60E080E0E6CF1F93CF93DF93D4
:10033000EC0101D1182F83E426D12ED124B135B19F
:100340003983288382E41FD127D124B135B13B837F
:100350002A83812FDF91CF911F91FFC01F920F92AF
:100360000FB60F9211242F933F934F935F936F9388
:100370007F938F939F93AF93BF93EF93FF9387B137
:100380007894813619F08336A1F027C080916A00F5
:1003900082FD02C080E601C082E6F89495B1909398
:1003A0006C009091630090936B0091E090936F00CC
:1003B00012C080916A0080FF02C080E601C082E620
:1003C000F89495B190936E009091630090936D00B6
:1003D00091E090936900789404C095B19093630084
:1003E0008F5FDED0FF91EF91BF91AF919F918F9181
:1003F0007F916F915F914F913F912F910F900FBE21
:100400000F901F9018959FB7F8948BB78F778BBF7D
:1004100085B7877F846085BF9FBFA49885B38071AF
:1004200085BB8B9893981092700008950F931F933B
:10043000CF93DF93939A8B9A7ED0082F84E4A3D036
:1004400014E0C0E0D0E0A8D024B135B1C20FD31F72
:100450001150C9F7802F81D08B989398BE01769563
:10046000679576956795CB01969587959850ADD011
:1004700082EC860FDF91CF911F910F9108951F920B
:100480000F920FB60F9211248F9381E0809370002A
:100490008BB78F778BBF8F910F900FBE0F901F90F0
:1004A000189512BC81E085BD89B7806489BF81E958
:1004B00083BD85B5877885BDBB9AC39808951F9283
:1004C0000F920FB60F9211248F9384B58B5D84BD6C
:1004D000809171008F5F809371008F910F900FBE9C
:1004E0000F901F901895F89495B79F70906895BFDE
:1004F000789490917100890F90917100981711F084
:100500008895FACFF89485B78F7785BF789408954A
:10051000F89485B78F70806885BF78948895F89433
:1005200085B78F7785BF789408958FEF80936400A7
:1005300086E086B908952FB7F89487B196B1392F20
:10054000387831F093FF05C08093640086E886B95F
:100550008FEF2FBF3699FECF08953FB7F8948F3FA6
:1005600031F4809164008F3F51F02EED01C026EDF3
:1005700097B19827907C09F016B887B901C020E0A0
:1005800026B93FBF089597B19827907C09F016B817
:1005900096E896B987B90895369A3699FECF0895A8
:1005A0002FB7F89496B197FF02C093FF0AC097B196
:1005B0009827907C09F016B8369916B887B99EED41
:1005C00096B9809364002FBF0895AA1BBB1B51E10D
:1005D00007C0AA1FBB1FA617B70710F0A61BB70BB3
:1005E000881F991F5A95A9F780959095BC01CD0158
:1005F000089505D0B7FF0895821B930B0895A29F1D
:10060000B001B39FC001A39F01D0B29F700D811DA7
:0A0610001124911D0895F894FFCF06
:00000001FF
