:1000000012C021C07FC11FC09DC11DC01CC01BC02C
:100010001AC019C018C017C016C015C0E2C013C05E
:1000200012C011C010C011241FBECFE5D4E0DEBF46
:10003000CDBF20E0A0E6B0E001C01D92A537B20719
:10004000E1F702D00CC2DCCFCF93DF9300D000D019
:10005000CDB7DEB71A8219821C821B8243D059D0D9
:1000600060E280E27FD060E580E588D022D1CE01D9
:1000700001969ED0C980DA8088ECC81AD108AB807E
:10008000BC8088ECA81AB10800E010E0CE0101960F
:100090008FD089819A818C159D0578F48B819C8104
:1000A0008A159B0550F481E03DD00130110561F4C3
:1000B00082E038D000E010E009C060E280E252D077
:1000C00060E580E55BD002C001E010E085E0E82E4D
:1000D000F12C84E24BD181E0E81AF108E114F1043B
:1000E000C1F7D4CF21D151D031D055D1CFD07894D0
:1000F0000895109269001092680010926B0010929F
:100100006A000895109262001092610010926000DF
:100110000895109265001092640083E0809363005C
:10012000E8DFF0CFC098929880FDC09A81FD929A46
:1001300008952FB7F894882319F09798A19AA09A58
:1001400095B39C7F982B95BB2FBF0895B89A81B328
:10015000846C81BB96989798A19AA09A80E0E9DF79
:1001600081E0E0CF2FB7F89492B39F7C892B82BBBC
:1001700088B38F7C682B68BB2FBF08959FB7F89416
:100180001BBC8ABD68BD9FBF089587B3866387BBCC
:1001900081B3806381BB81EA8FBD82E08EBD89B768
:1001A000837C89BF60E280E2DDDF60E080E0E6CF53
:1001B0001F93CF93DF93EC01F4D0182F83E419D170
:1001C00021D124B135B13983288382E412D11AD1E7
:1001D00024B135B13B832A83812FDF91CF911F91C9
:1001E000F2C01F920F920FB60F9211242F933F93DC
:1001F0004F935F936F937F938F939F93AF93BF932F
:10020000EF93FF9387B17894813619F08336A1F08C
:1002100027C080916D0082FD02C080E601C082E6A9
:10022000F89495B190936F009091660090936E0052
:1002300091E09093720012C080916D0080FF02C027
:1002400080E601C082E6F89495B190937100909198
:1002500066009093700091E090936C00789404C0D5
:1002600095B1909366008F5FD1D0FF91EF91BF91D0
:10027000AF919F918F917F916F915F914F913F913E
:100280002F910F900FBE0F901F9018959FB7F89465
:100290008BB78F778BBF85B7877F846085BF9FBF04
:1002A000A49885B3807185BB8B9893981092730046
:1002B00008950F931F93CF93DF93939A8B9A71D0E6
:1002C000082F84E496D014E0C0E0D0E09BD024B1A5
:1002D00035B1C20FD31F1150C9F7802F74D08B983E
:1002E0009398BE017695679576956795CB0196951F
:1002F00087959850A0D082EC860FDF91CF911F9107
:100300000F9108951F920F920FB60F9211248F93A1
:1003100081E0809373008BB78F778BBF8F910F90A5
:100320000FBE0F901F90189512BC81E085BD89B754
:10033000806489BF81E983BD85B5877885BDBB9A17
:10034000C39808951F920F920FB60F9211248F93A6
:1003500084B58B5D84BD809174008F5F8093740041
:100360008F910F900FBE0F901F901895F89495B72E
:100370009F70906895BF789490917400890F9091C8
:100380007400981711F08895FACFF89485B78F7795
:1003900085BF789408958FEF8093670086E086B9D3
:1003A00008952FB7F89487B196B1392F387831F086
:1003B00093FF05C08093670086E886B98FEF2FBF53
:1003C0003699FECF08953FB7F8948F3F31F480916E
:1003D00067008F3F51F02EED01C026ED97B19827B1
:1003E000907C09F016B887B901C020E026B93FBF5C
:1003F000089597B19827907C09F016B896E896B9B9
:1004000087B90895369A3699FECF08952FB7F89494
:1004100096B197FF02C093FF0AC097B19827907CCE
:1004200009F016B8369916B887B99EED96B980933B
:1004300067002FBF0895AA1BBB1B51E107C0AA1F6D
:10044000BB1FA617B70710F0A61BB70B881F991F75
:100450005A95A9F780959095BC01CD010895F8941F
:02046000FFCFCC
:00000001FF
