:1000000012C02CC07BC22AC099C228C027C026C0FB
:1000100025C024C023C022C021C020C0DEC11EC014
:100020001DC01CC01BC011241FBECFE5D4E0DEBF25
:10003000CDBF20E0A4E6B0E001C01D92AF36B2070C
:10004000E1F710E0A0E6B0E0E0ECFBE002C00590D4
:100050000D92A436B107D9F734D0B0C5D1CFCF9225
:10006000DF92EF92FF920F931F93CF93DF93D82EDF
:10007000C92E06E010E0E12CF12CEF2831F060E011
:1000800081E061D1E12CF12C06C061E080E05BD120
:10009000EE24E394F12CCD2DDC2D209721F084E289
:1000A00061D22197FACF015011090115110529F7E5
:1000B000DF91CF911F910F91FF90EF90DF90CF9044
:1000C0000895CF93DF9300D000D0CDB7DEB714D121
:1000D00060E280E243D172E0272E312C00E018E08C
:1000E000CE01019661D16B817C81882777FD809557
:1000F000982F9DD36B017C0120E030E040E85AE36B
:1001000022D44B015C0120E030E048E454E41BD4ED
:100110002B013C0120E030E040E85FE3C501B40181
:1001200086D29B01AC01C301B2010DD49B01AC018D
:10013000C701B6017DD248D37C836B8329813A8184
:10014000260F371F223D374020F160E080E012D1BA
:1001500069817A8180E090E068D36B017C016B81DA
:100160007C8180E090E061D39B01AC01C701B601C6
:100170005FD29B01AC0160E070E080E095E4BCD20E
:1001800020E030E048EC52E4DED31ED3CB0167DF41
:10019000A7CF8BD1F82E89D18F218F7371F5C980AC
:1001A000DA80EB80FC80B7016C0D7D1DC8012ED478
:1001B00080E090E03AD34B015C01EC14FD0408F0C0
:1001C00072C060E081E0BFD0B60180E090E02DD346
:1001D00020E030E040E85AE3B6D3A5019401B3D360
:1001E00020E030E048EC52E4AED320E030E040E7DD
:1001F00052E41ED2EED285E572C060E180E1AED05D
:1002000060E880E8B7D060EDE62E67E0F62E84E285
:10021000A9D181E0E81AF108E114F104C1F760E224
:1002200080E29CD062E382E3A5D054EFE52EFF2468
:10023000F39484E297D181E0E81AF108E114F10423
:10024000C1F762E382E396D044EFE42EFF24F394F7
:1002500084E288D181E0E81AF108E114F104C1F7E1
:1002600035E0E32EF12C84E27DD181E0E81AF1083B
:10027000E114F104C1F73AD4B101DCD3892B19F4AC
:1002800060E084E602C064E680E074D020EDE22EF7
:1002900027E0F22E84E266D181E0E81AF108E11449
:1002A000F104C1F77CCF61E080E04DD0B70180E080
:1002B00090E0BBD220E030E040E85AE344D3A5010F
:1002C000940141D320E030E048EC52E43CD320E0FC
:1002D00030E040E752E4ACD17CD2862F65E54AD0CD
:1002E00095E0E92EF12C84E23DD181E0E81AF10895
:1002F000E114F104C1F7F4CE13D143D018D047D1A3
:10030000C1D078940895C098929880FDC09A81FDDC
:10031000929A08952FB7F894882319F09798A19A84
:10032000A09A95B39C7F982B95BB2FBF0895B89A40
:1003300081B3846C81BB96989798A19AA09A80E02B
:10034000E9DF81E0E0CF882311F092E001C090E086
:1003500081E0611101C080E0892BDCCF2FB7F894D8
:1003600092B39F7C892B82BB88B38F7C682B68BB40
:100370002FBF08959FB7F8941BBC8ABD68BD9FBF6F
:10038000089587B3866387BB81B3806381BB81EAAD
:100390008FBD82E08EBD89B7837C89BF60E280E239
:1003A000DDDF60E080E0E6CF1F93CF93DF93EC01C9
:1003B000F4D0182F83E419D121D124B135B1398378
:1003C000288382E412D11AD124B135B13B832A8328
:1003D000812FDF91CF911F91F2C01F920F920FB624
:1003E0000F9211242F933F934F935F936F937F93BB
:1003F0008F939F93AF93BF93EF93FF9387B17894BD
:10040000813619F08336A1F027C08091670082FD04
:1004100002C080E601C082E6F89495B1909369002D
:10042000909164009093680091E090936C0012C0EA
:100430008091670080FF02C080E601C082E6F894E8
:1004400095B190936B009091640090936A0091E055
:1004500090936600789404C095B1909364008F5F88
:10046000D1D0FF91EF91BF91AF919F918F917F91EB
:100470006F915F914F913F912F910F900FBE0F9011
:100480001F9018959FB7F8948BB78F778BBF85B760
:10049000877F846085BF9FBFA49885B3807185BB2B
:1004A0008B98939810926D0008950F931F93CF939C
:1004B000DF93939A8B9A71D0082F84E496D014E03E
:1004C000C0E0D0E09BD024B135B1C20FD31F115092
:1004D000C9F7802F74D08B989398BE017695679555
:1004E00076956795CB019695879598508FD282EC3B
:1004F000860FDF91CF911F910F9108951F920F9258
:100500000FB60F9211248F9381E080936D008BB70B
:100510008F778BBF8F910F900FBE0F901F90189504
:1005200012BC81E085BD89B7806489BF81E983BD44
:1005300085B5877885BDBB9AC39808951F920F92A1
:100540000FB60F9211248F9384B58B5D84BD80917B
:100550006E008F5F80936E008F910F900FBE0F9093
:100560001F901895F89495B79F70906895BF7894F0
:1005700090916E00890F90916E00981711F08895F8
:10058000FACFF89485B78F7785BF789408958FEF69
:100590008093650086E086B908952FB7F89487B1F7
:1005A00096B1392F387831F093FF05C080936500FC
:1005B00086E886B98FEF2FBF3699FECF08953FB7F3
:1005C000F8948F3F31F4809165008F3F51F02EED0C
:1005D00001C026ED97B19827907C09F016B887B92D
:1005E00001C020E026B93FBF089597B19827907CBD
:1005F00009F016B896E896B987B90895369A3699EB
:10060000FECF08952FB7F89496B197FF02C093FFDD
:100610000AC097B19827907C09F016B8369916B899
:1006200087B99EED96B9809365002FBF0895505805
:10063000BB27AA270ED04DC13ED130F043D120F0C8
:1006400031F49F3F11F41EF433C10EF4E095E7FB43
:1006500029C1E92F4FD180F3BA17620773078407C6
:10066000950718F071F49EF567C10EF4E0950B2E16
:10067000BA2FA02D0B01B90190010C01CA01A001F4
:100680001124FF27591B99F0593F50F4503E68F14F
:100690001A16F040A22F232F342F4427585FF3CF90
:1006A000469537952795A795F0405395C9F77EF461
:1006B0001F16BA0B620B730B840BBAF09150A1F0AA
:1006C000FF0FBB1F661F771F881FC2F70EC0BA0F30
:1006D000621F731F841F48F4879577956795B795B8
:1006E000F7959E3F08F0B3CF9395880F08F09927B0
:1006F000EE0F9795879508950CD0EBC0E3D040F0AE
:10070000DAD030F021F45F3F19F0CCC0511115C19F
:10071000CFC0F0D098F39923C9F35523B1F3951BBB
:10072000550BBB27AA2762177307840738F09F5F12
:100730005F4F220F331F441FAA1FA9F333D00E2E81
:100740003AF0E0E830D091505040E695001CCAF7EE
:1007500029D0FE2F27D0660F771F881FBB1F2617B3
:1007600037074807AB07B0E809F0BB0B802DBF0186
:10077000FF2793585F4F2AF09E3F510568F092C0C3
:10078000DCC05F3FECF3983EDCF386957795679588
:10079000B795F7959F5FC9F7880F911D9695879537
:1007A00097F90895E1E0660F771F881FBB1F621756
:1007B00073078407BA0720F0621B730B840BBA0B14
:1007C000EE1F88F7E095089504D06894B111B5C084
:1007D000089598D088F09F5790F0B92F9927B75176
:1007E000A0F0D1F0660F771F881F991F1AF0BA95F5
:1007F000C9F712C0B13081F09FD0B1E008959CC01C
:10080000672F782F8827B85F39F0B93FCCF38695EA
:1008100077956795B395D9F73EF490958095709547
:1008200061957F4F8F4F9F4F0895E89409C097FBC4
:100830003EF490958095709561957F4F8F4F9F4FB7
:100840009923A9F0F92F96E9BB279395F6958795FB
:1008500077956795B795F111F8CFFAF4BB0F11F4BE
:1008600060FF1BC06F5F7F4F8F4F9F4F16C0882365
:1008700011F096E911C0772321F09EE8872F762F9B
:1008800005C0662371F096E8862F70E060E02AF0DC
:100890009A95660F771F881FDAF7880F96958795C8
:1008A00097F9089597F99F6780E870E060E00895F0
:1008B0009FEF80EC089500240A9416161706180678
:1008C0000906089500240A94121613061406050654
:1008D0000895092E0394000C11F4882352F0BB0FE5
:1008E00040F4BF2B11F460FF04C06F5F7F4F8F4F48
:1008F0009F4F089557FD9058440F551F59F05F3F83
:1009000071F04795880F97FB991F61F09F3F79F031
:1009100087950895121613061406551FF2CF4695B3
:10092000F1DF08C0161617061806991FF1CF869535
:100930007105610508940895E894BB276627772719
:10094000CB0197F908950BD0C4CFB5DF28F0BADFFB
:1009500018F0952309F0A6CFABCF1124EECFCADF54
:10096000A0F3959FD1F3950F50E0551F629FF001C2
:10097000729FBB27F00DB11D639FAA27F00DB11D1B
:10098000AA1F649F6627B00DA11D661F829F2227A4
:10099000B00DA11D621F739FB00DA11D621F839F2B
:1009A000A00D611D221F749F3327A00D611D231F01
:1009B000849F600D211D822F762F6A2F11249F574F
:1009C00050408AF0E1F088234AF0EE0FFF1FBB1F72
:1009D000661F771F881F91505040A9F79E3F510511
:1009E00070F060CFAACF5F3FECF3983EDCF38695C2
:1009F00077956795B795F795E7959F5FC1F7FE2BBC
:100A0000880F911D9695879597F90895AA1BBB1B92
:100A100051E107C0AA1FBB1FA617B70710F0A61BFE
:100A2000B70B881F991F5A95A9F780959095BC011F
:100A3000CD01089597FB072E16F4009406D077FD9C
:100A400008D0E4DF07FC05D03EF4909581959F4FD8
:100A50000895709561957F4F08958F929F92AF9200
:100A6000BF92CF92DF92EF92FF92CF93DF93EC0190
:100A7000688179818A819B81611571058105910564
:100A800021F464E279ED8BE597E02DE133EF41E06D
:100A900050E03AD049015A019B01AC01A7EAB1E408
:100AA0004FD06B017C01ACEEB4EFA501940154D0A2
:100AB000C60ED71EE81EF91EF7FE06C081E0C81A52
:100AC000D108E10880E8F80AC882D982EA82FB826C
:100AD000C6019F77DF91CF91FF90EF90DF90CF908D
:100AE000BF90AF909F908F900895B7CF80E690E031
:100AF000B4CFA0E0B0E08093600090936100A09339
:100B00006200B09363000895052E97FB16F40094DD
:100B10000FD057FD05D024D007FC02D046F408C002
:100B200050954095309521953F4F4F4F5F4F089519
:100B300090958095709561957F4F8F4F9F4F089549
:100B400031D0A59F900DB49F900DA49F800D911D55
:100B500011240895B7FFF4CFF3DF821B930B0895A0
:100B6000A1E21A2EAA1BBB1BFD010DC0AA1FBB1FB1
:100B7000EE1FFF1FA217B307E407F50720F0A21B23
:100B8000B30BE40BF50B661F771F881F991F1A9490
:100B900069F760957095809590959B01AC01BD01BA
:100BA000CF010895A29FB001B39FC001A39F01D0C0
:100BB000B29F700D811D1124911D0895F894FFCFEF
:040BC0000100000030
:00000001FF
