:1000000012C02CC0D5C12AC0F3C128C027C026C049
:1000100025C024C023C022C021C020C038C11EC0BA
:100020001DC01CC01BC011241FBECFE5D4E0DEBF25
:10003000CDBF20E0A4E6B0E001C01D92AF36B2070C
:10004000E1F710E0A0E6B0E0E6E9F6E002C00590D6
:100050000D92A436B107D9F713D01BC3D1CFCF93DC
:10006000DF93EC0160E080E0DFD01C161D062CF46D
:1000700084E2D2D121972097D9F7DF91CF910895CB
:10008000CF93DF9300D000D0CDB7DEB78FD000E0A4
:1000900010E048EBC42E4BE0D42E52E0A52EB12C3C
:1000A0000F5F1F4F5CD1F82E60E280E2B1D062E8B2
:1000B0008AEABAD08F2D8F7361F41A8219821C825A
:1000C0001B82CE010196CAD089819A81C397B0F074
:1000D00019C060E180E19CD066E98CE3A5D082E0A4
:1000E0006CD03CEDE32E35E0F32E84E295D181E037
:1000F000E81AF108E114F104C1F7DFCF8B819C818C
:10010000C397F0F060E58CE38FD0CE010196A6D0C6
:1001100020EDE22E27E0F22E84E27ED181E0E81A83
:10012000F108E114F104C1F70BC08B819C81853685
:10013000910560F084EF91E092DFCE0101968ED0C0
:1001400089819A818536910580F3F4CFC801B60183
:10015000DCD1892B51F435D2B501D7D1892B29F0C7
:1001600083E02BD088EB9BE07ADF98EEE92E93E0DA
:10017000F92E84E251D181E0E81AF108E114F1048A
:10018000C1F768EC80EA50D081E017D060E080E0F1
:1001900034D084EFE82EFF24F39484E23DD181E053
:1001A000E81AF108E114F104C1F77ACF13D143D072
:1001B00018D047D1C1D078940895C098929880FD06
:1001C000C09A81FD929A08952FB7F894882319F068
:1001D0009798A19AA09A95B39C7F982B95BB2FBF17
:1001E0000895B89A81B3846C81BB96989798A19A28
:1001F000A09A80E0E9DF81E0E0CF882311F092E06F
:1002000001C090E081E0611101C080E0892BDCCF6A
:100210002FB7F89492B39F7C892B82BB88B38F7CD5
:10022000682B68BB2FBF08959FB7F8941BBC8ABD8D
:1002300068BD9FBF089587B3866387BB81B3806322
:1002400081BB81EA8FBD82E08EBD89B7837C89BF87
:1002500060E280E2DDDF60E080E0E6CF1F93CF93D5
:10026000DF93EC01F4D0182F83E419D121D124B10C
:1002700035B13983288382E412D11AD124B135B142
:100280003B832A83812FDF91CF911F91F2C01F9270
:100290000F920FB60F9211242F933F934F935F93BA
:1002A0006F937F938F939F93AF93BF93EF93FF933E
:1002B00087B17894813619F08336A1F027C08091F8
:1002C000670082FD02C080E601C082E6F89495B125
:1002D00090936900909164009093680091E09093EE
:1002E0006C0012C08091670080FF02C080E601C0F0
:1002F00082E6F89495B190936B009091640090938E
:100300006A0091E090936600789404C095B1909350
:1003100064008F5FD1D0FF91EF91BF91AF919F911A
:100320008F917F916F915F914F913F912F910F909E
:100330000FBE0F901F9018959FB7F8948BB78F77CB
:100340008BBF85B7877F846085BF9FBFA49885B327
:10035000807185BB8B98939810926D0008950F93D0
:100360001F93CF93DF93939A8B9A71D0082F84E4D5
:1003700096D014E0C0E0D0E09BD024B135B1C20FDC
:10038000D31F1150C9F7802F74D08B989398BE015A
:100390007695679576956795CB0196958795985054
:1003A000A0D082EC860FDF91CF911F910F9108951D
:1003B0001F920F920FB60F9211248F9381E08093BA
:1003C0006D008BB78F778BBF8F910F900FBE0F9003
:1003D0001F90189512BC81E085BD89B7806489BFE4
:1003E00081E983BD85B5877885BDBB9AC39808959B
:1003F0001F920F920FB60F9211248F9384B58B5DCD
:1004000084BD80916E008F5F80936E008F910F90FE
:100410000FBE0F901F901895F89495B79F70906835
:1004200095BF789490916E00890F90916E00981707
:1004300011F08895FACFF89485B78F7785BF7894B7
:1004400008958FEF8093650086E086B908952FB7F1
:10045000F89487B196B1392F387831F093FF05C001
:100460008093650086E886B98FEF2FBF3699FECF5F
:1004700008953FB7F8948F3F31F4809165008F3F26
:1004800051F02EED01C026ED97B19827907C09F030
:1004900016B887B901C020E026B93FBF089597B1CB
:1004A0009827907C09F016B896E896B987B9089510
:1004B000369A3699FECF08952FB7F89496B197FFE4
:1004C00002C093FF0AC097B19827907C09F016B834
:1004D000369916B887B99EED96B9809365002FBFFF
:1004E0000895AA1BBB1B51E107C0AA1FBB1FA6177B
:1004F000B70710F0A61BB70B881F991F5A95A9F7CD
:1005000080959095BC01CD01089597FB072E16F4B8
:10051000009406D077FD08D0E4DF07FC05D03EF458
:10052000909581959F4F0895709561957F4F08959F
:100530008F929F92AF92BF92CF92DF92EF92FF92F3
:10054000CF93DF93EC01688179818A819B8161156A
:1005500071058105910521F464E279ED8BE597E061
:100560002DE133EF41E050E03AD049015A019B01BF
:10057000AC01A7EAB1E44FD06B017C01ACEEB4EF63
:10058000A501940154D0C60ED71EE81EF91EF7FE31
:1005900006C081E0C81AD108E10880E8F80AC882DC
:1005A000D982EA82FB82C6019F77DF91CF91FF90CB
:1005B000EF90DF90CF90BF90AF909F908F90089575
:1005C000B7CF80E690E0B4CFA0E0B0E080936000C9
:1005D00090936100A0936200B09363000895052E8C
:1005E00097FB16F400940FD057FD05D024D007FCDC
:1005F00002D046F408C050954095309521953F4F64
:100600004F4F5F4F089590958095709561957F4FFE
:100610008F4F9F4F089531D0A59F900DB49F900D9F
:10062000A49F800D911D11240895B7FFF4CFF3DF2F
:10063000821B930B0895A1E21A2EAA1BBB1BFD017E
:100640000DC0AA1FBB1FEE1FFF1FA217B307E407B1
:10065000F50720F0A21BB30BE40BF50B661F771F09
:10066000881F991F1A9469F76095709580959095E9
:100670009B01AC01BD01CF010895A29FB001B39FC2
:10068000C001A39F01D0B29F700D811D1124911D47
:060690000895F894FFCF6D
:04069600010000005F
:00000001FF
