:1000000012C021C0B7C11FC0D5C11DC01CC01BC0BC
:100010001AC019C018C017C016C015C01AC113C025
:1000200012C011C010C011241FBECFE5D4E0DEBF46
:10003000CDBF20E0A0E6B0E001C01D92AB36B20714
:10004000E1F716D044C2DCCFCF93DF93EC0160E040
:1000500080E0CCD061E080E0B2D01C161D062CF40C
:1000600084E2BCD121972097D9F7DF91CF910895F1
:10007000CF93DF9300D000D0CDB7DEB779D038EC86
:10008000E32EF12C00EA10E04CD1D82E60E280E2A1
:10009000A1D062E88AEAAAD08D2D8F7329F41A8242
:1000A00019821C821B8226C060E180E193D068EC3B
:1000B00080E59CD082E063D02CEDC22E25E0D22ECC
:1000C00084E28CD181E0C81AD108C114D104C1F7EF
:1000D000E6CF8B819C818997D8F00B301105C4F055
:1000E00083E04DD00550110985E0E81AF1086E2D26
:1000F000802F7CD0CE01019693D089819A818997F7
:1001000060F7E7CF84EF91E09FDFCE01019688D0C2
:1001100089819A8185369105A8F78B819C818536E6
:10012000910580F783E02BD088EE93E08DDF98EE89
:10013000C92E93E0D92E84E251D181E0C81AD108AA
:10014000C114D104C1F768EC80EA50D081E017D027
:1001500060E080E034D084EFC82EDD24D39484E2C4
:100160003DD181E0C81AD108C114D104C1F78CCFA8
:1001700013D143D018D047D1C1D078940895C098F6
:10018000929880FDC09A81FD929A08952FB7F894B5
:10019000882319F09798A19AA09A95B39C7F982BE1
:1001A00095BB2FBF0895B89A81B3846C81BB969894
:1001B0009798A19AA09A80E0E9DF81E0E0CF8823B8
:1001C00011F092E001C090E081E0611101C080E097
:1001D000892BDCCF2FB7F89492B39F7C892B82BBFD
:1001E00088B38F7C682B68BB2FBF08959FB7F894A6
:1001F0001BBC8ABD68BD9FBF089587B3866387BB5C
:1002000081B3806381BB81EA8FBD82E08EBD89B7F7
:10021000837C89BF60E280E2DDDF60E080E0E6CFE2
:100220001F93CF93DF93EC01F4D0182F83E419D1FF
:1002300021D124B135B13983288382E412D11AD176
:1002400024B135B13B832A83812FDF91CF911F9158
:10025000F2C01F920F920FB60F9211242F933F936B
:100260004F935F936F937F938F939F93AF93BF93BE
:10027000EF93FF9387B17894813619F08336A1F01C
:1002800027C08091630082FD02C080E601C082E643
:10029000F89495B1909365009091600090936400FC
:1002A00091E09093680012C08091630080FF02C0CB
:1002B00080E601C082E6F89495B190936700909132
:1002C00060009093660091E090936200789404C07F
:1002D00095B1909360008F5FD1D0FF91EF91BF9166
:1002E000AF919F918F917F916F915F914F913F91CE
:1002F0002F910F900FBE0F901F9018959FB7F894F5
:100300008BB78F778BBF85B7877F846085BF9FBF93
:10031000A49885B3807185BB8B98939810926900DF
:1003200008950F931F93CF93DF93939A8B9A71D075
:10033000082F84E496D014E0C0E0D0E09BD024B134
:1003400035B1C20FD31F1150C9F7802F74D08B98CD
:100350009398BE017695679576956795CB019695AE
:1003600087959850A0D082EC860FDF91CF911F9196
:100370000F9108951F920F920FB60F9211248F9331
:1003800081E0809369008BB78F778BBF8F910F903F
:100390000FBE0F901F90189512BC81E085BD89B7E4
:1003A000806489BF81E983BD85B5877885BDBB9AA7
:1003B000C39808951F920F920FB60F9211248F9336
:1003C00084B58B5D84BD80916A008F5F80936A00E5
:1003D0008F910F900FBE0F901F901895F89495B7BE
:1003E0009F70906895BF789490916A00890F909162
:1003F0006A00981711F08895FACFF89485B78F772F
:1004000085BF789408958FEF8093610086E086B968
:1004100008952FB7F89487B196B1392F387831F015
:1004200093FF05C08093610086E886B98FEF2FBFE8
:100430003699FECF08953FB7F8948F3F31F48091FD
:1004400061008F3F51F02EED01C026ED97B1982746
:10045000907C09F016B887B901C020E026B93FBFEB
:10046000089597B19827907C09F016B896E896B948
:1004700087B90895369A3699FECF08952FB7F89424
:1004800096B197FF02C093FF0AC097B19827907C5E
:1004900009F016B8369916B887B99EED96B98093CB
:1004A00061002FBF0895AA1BBB1B51E107C0AA1F03
:1004B000BB1FA617B70710F0A61BB70B881F991F05
:1004C0005A95A9F780959095BC01CD010895F894AF
:0204D000FFCF5C
:00000001FF
