:1000000012C021C050C11FC06EC11DC01CC01BC08A
:100010001AC019C018C017C016C015C0DCC013C064
:1000200012C011C010C011241FBECFE5D4E0DEBF46
:10003000CDBF20E0A0E6B0E001C01D92AB36B20714
:10004000E1F702D0C9C1DCCFCF93DF9300D000D05D
:10005000CDB7DEB74FD083E054D0CE010196A2D009
:10006000E980FA8086E9E80EF11CCB80DC8086E925
:10007000C80ED11CCE01019695D089819A81E816CF
:10008000F90668F48B819C81C816D90640F460E1BA
:1000900080E262D06AE58AE56BD081E032D02981C6
:1000A0003A818B819C818217930740F460E280E261
:1000B00053D064E680E05CD082E023D02B813C8189
:1000C00089819A818217930758F460E280E244D0D4
:1000D00060E084E64DD083E014D061E081E031D06F
:1000E00005E010E084E213D101501109011511055A
:1000F000C9F7C0CFEAD043D018D01ED1C1D0789470
:100100000895C098929880FDC09A81FD929A0895B2
:100110002FB7F894882319F09798A19AA09A95B3CD
:100120009C7F982B95BB2FBF0895B89A81B3846CA0
:1001300081BB96989798A19AA09A80E0E9DF81E028
:10014000E0CF882311F092E001C090E081E06111DE
:1001500001C080E0892BDCCF2FB7F89492B39F7C4D
:10016000892B82BB88B38F7C682B68BB2FBF089517
:100170009FB7F8941BBC8ABD68BD9FBF089587B325
:10018000866387BB81B3806381BB81EA8FBD82E0D8
:100190008EBD89B7837C89BF60E280E2DDDF60E0ED
:1001A00080E0E6CF1F93CF93DF93EC01CBD0182FE5
:1001B00083E4F0D0F8D024B135B13983288382E4C8
:1001C000E9D0F1D024B135B13B832A83812FDF916F
:1001D000CF911F91C9C01F920F920FB60F92112499
:1001E0002F933F934F935F936F937F938F939F933F
:1001F000AF93BF93EF93FF9387B17894813619F053
:100200008336A1F027C08091630082FD02C080E6A2
:1002100001C082E6F89495B19093650090916000DA
:100220009093640091E09093680012C08091630005
:1002300080FF02C080E601C082E6F89495B19093F9
:100240006700909160009093660091E09093620047
:10025000789404C095B1909360008F5FA8D0FF910F
:10026000EF91BF91AF919F918F917F916F915F912E
:100270004F913F912F910F900FBE0F901F901895A7
:100280009FB7F8948BB78F778BBF85B7877F8460D4
:1002900085BF9FBFA49885B3807185BB8B989398C9
:1002A0001092690008951F920F920FB60F921124B9
:1002B0008F9381E0809369008BB78F778BBF8F918D
:1002C0000F900FBE0F901F90189512BC81E085BD56
:1002D00089B7806489BF81E983BD85B5877885BD8D
:1002E000BB9AC39808951F920F920FB60F921124D4
:1002F0008F9384B58B5D84BD80916A008F5F8093FE
:100300006A008F910F900FBE0F901F901895F89470
:1003100095B79F70906895BF789490916A00890F07
:1003200090916A00981711F08895FACFF89485B7E4
:100330008F7785BF789408958FEF8093610086E072
:1003400086B908952FB7F89487B196B1392F3878C8
:1003500031F093FF05C08093610086E886B98FEF86
:100360002FBF3699FECF08953FB7F8948F3F31F4F1
:10037000809161008F3F51F02EED01C026ED97B1C5
:100380009827907C09F016B887B901C020E026B9FB
:100390003FBF089597B19827907C09F016B896E86A
:1003A00096B987B90895369A3699FECF08952FB732
:1003B000F89496B197FF02C093FF0AC097B19827AF
:1003C000907C09F016B8369916B887B99EED96B9A3
:0C03D000809361002FBF0895F894FFCFC8
:00000001FF
