:1000000012C021C0D3C11FC0F1C11DC01CC01BC084
:100010001AC019C018C017C016C015C036C113C009
:1000200012C011C010C011241FBECFE5D4E0DEBF46
:10003000CDBF20E0A0E6B0E001C01D92AB36B20714
:10004000E1F702D073C2DCCFCF93DF9300D000D0B2
:10005000CDB7DEB7A9D036E0832E912C1A82198253
:100060001C821B82CE010196F7D077D1482F89815F
:100070009A81CC96B40147D26B018B018B819C8114
:10008000B40141D25B017B01842F8270582E4071F4
:10009000442E60E280E2BAD06C2D8A2DC3D028E7CE
:1000A000622E712C84E2B6D181E0681A7108611465
:1000B0007104C1F78FEFC816D10409F03CF48AE54A
:1000C000C816D1042CF400E010E002C00EEF10E0DE
:1000D0008FEFA816B10409F03CF48AE5A816B10424
:1000E00034F4E12CF12C03C09EEFE92EF12CE01644
:1000F000F1061CF461E080E07ED00E151F051CF4B3
:1001000060E081E078D0E016F10619F461E081E06A
:1001100072D0E114F10499F00035110514F482E075
:100120004AD081E5E816F1042CF00436110514F4E8
:1001300083E041D00536110514F081E03CD021E088
:1001400030E0411002C020E030E02529232BE9F007
:1001500061E080E050D084E25DD160E081E04BD08E
:1001600060E180E153D068E788E75CD088E5C82E7D
:1001700082E0D82E84E24ED181E0C81AD108C114A1
:10018000D104C1F760E080E041D0012B09F466CFD3
:1001900080E5E816F1040CF061CF60E280E136D032
:1001A00068E788E73FD05ACF13D143D018D047D162
:1001B000C1D078940895C098929880FDC09A81FD2E
:1001C000929A08952FB7F894882319F09798A19AD6
:1001D000A09A95B39C7F982B95BB2FBF0895B89A92
:1001E00081B3846C81BB96989798A19AA09A80E07D
:1001F000E9DF81E0E0CF882311F092E001C090E0D8
:1002000081E0611101C080E0892BDCCF2FB7F89429
:1002100092B39F7C892B82BB88B38F7C682B68BB91
:100220002FBF08959FB7F8941BBC8ABD68BD9FBFC0
:10023000089587B3866387BB81B3806381BB81EAFE
:100240008FBD82E08EBD89B7837C89BF60E280E28A
:10025000DDDF60E080E0E6CF1F93CF93DF93EC011A
:10026000F4D0182F83E419D121D124B135B13983C9
:10027000288382E412D11AD124B135B13B832A8379
:10028000812FDF91CF911F91F2C01F920F920FB675
:100290000F9211242F933F934F935F936F937F930C
:1002A0008F939F93AF93BF93EF93FF9387B178940E
:1002B000813619F08336A1F027C08091630082FD5A
:1002C00002C080E601C082E6F89495B19093650083
:1002D000909160009093640091E09093680012C048
:1002E0008091630080FF02C080E601C082E6F8943E
:1002F00095B190936700909160009093660091E0B3
:1003000090936200789404C095B1909360008F5FE1
:10031000D1D0FF91EF91BF91AF919F918F917F913C
:100320006F915F914F913F912F910F900FBE0F9062
:100330001F9018959FB7F8948BB78F778BBF85B7B1
:10034000877F846085BF9FBFA49885B3807185BB7C
:100350008B9893981092690008950F931F93CF93F1
:10036000DF93939A8B9A71D0082F84E496D014E08F
:10037000C0E0D0E09BD024B135B1C20FD31F1150E3
:10038000C9F7802F74D08B989398BE0176956795A6
:1003900076956795CB01969587959850A0D082EC7D
:1003A000860FDF91CF911F910F9108951F920F92A9
:1003B0000FB60F9211248F9381E0809369008BB761
:1003C0008F778BBF8F910F900FBE0F901F90189556
:1003D00012BC81E085BD89B7806489BF81E983BD96
:1003E00085B5877885BDBB9AC39808951F920F92F3
:1003F0000FB60F9211248F9384B58B5D84BD8091CD
:100400006A008F5F80936A008F910F900FBE0F90EC
:100410001F901895F89495B79F70906895BF789441
:1004200090916A00890F90916A00981711F0889551
:10043000FACFF89485B78F7785BF789408958FEFBA
:100440008093610086E086B908952FB7F89487B14C
:1004500096B1392F387831F093FF05C08093610051
:1004600086E886B98FEF2FBF3699FECF08953FB744
:10047000F8948F3F31F4809161008F3F51F02EED61
:1004800001C026ED97B19827907C09F016B887B97E
:1004900001C020E026B93FBF089597B19827907C0E
:1004A00009F016B896E896B987B90895369A36993C
:1004B000FECF08952FB7F89496B197FF02C093FF2F
:1004C0000AC097B19827907C09F016B8369916B8EB
:1004D00087B99EED96B9809361002FBF0895AA1B3E
:1004E000BB1B51E107C0AA1FBB1FA617B70710F01F
:1004F000A61BB70B881F991F5A95A9F78095909551
:10050000BC01CD01089597FB072E16F4009406D088
:1005100077FD08D0E4DF07FC05D03EF49095819587
:100520009F4F0895709561957F4F0895F894FFCF80
:00000001FF
