:1000000012C021C07FC21FC09DC21DC01CC01BC02A
:100010001AC019C018C017C016C015C0E2C113C05D
:1000200012C011C010C011241FBECFE5D4E0DEBF46
:10003000CDBF20E0A0E6B0E001C01D92AB36B20714
:10004000E1F702D01FC3DCCFCF93DF93CDB7DEB78C
:100050006B970FB6F894DEBF0FBECDBF4BD160E0FB
:1000600080E08CD160E380E37DD180E051D160E01D
:1000700080E06DD180E045D1CE0101963C0186E162
:10008000F30111928A95E9F7E12CF12CA12CB12C06
:10009000C12CD12C47E0842E912C188E1F8A1A8EE9
:1000A000198ECE01479684D104D28B8F8F89988D7B
:1000B00080569F4FB401D3D28B01898D9A8D8C5974
:1000C0009F4FB401CCD21B012B01093C110544F414
:1000D000043611053CF482E014D100E010E002C0C7
:1000E00008EC10E0F9EC2F1631044CF424E622164B
:1000F000310444F482E005D1412C512C03C038EC8A
:10010000432E512C60E280E22DD1602F842D36D118
:1001100028E7222E312C84E229D281E0281A3108E6
:1001200021143104C1F7401651061CF461E080E04F
:100130000ED1041515051CF460E081E008D14016CD
:10014000510619F461E081E002D14114510499F0A3
:100150000035110514F482E0D4D091E5491651041C
:100160002CF00837110514F483E0CBD009371105C2
:1001700014F081E0C6D0E8EBEE16EBE0FE0629F4C1
:1001800081E0C6D0E12CF12C0AC0FFE0EF16F104AB
:1001900031F480E0BDD090E1E92EF12C03C02FEFC7
:1001A000E21AF20A8B8D8271E1F082E0AAD061E05E
:1001B00080E0CDD084E2DAD160E081E0C8D060E1B7
:1001C00080E1D0D068E788E7D9D008E512E084E282
:1001D000CDD10150110901151105C9F760E080E08A
:1001E000C1D08B8D8970E1F082E08BD061E080E03E
:1001F000AED084E2BBD160E081E0A9D060E180E1D3
:10020000B1D06CE388E7BAD008E512E084E2AED161
:100210000150110901151105C9F760E080E0A2D075
:100220008B8D8472E1F082E06CD061E080E08FD051
:1002300084E29CD160E081E08AD060E180E192D0EC
:1002400068E78CE39BD008E512E084E28FD101508F
:10025000110901151105C9F760E080E083D08FE135
:10026000A816B10484F060E180E17CD06CE38CE3FB
:1002700085D00CE310E084E279D101501109011519
:100280001105C9F704C09FEFA91AB90A02C0A12C31
:10029000B12C8601000F111F060D171D412C512C8A
:1002A0008F89988D892B01F160E080E05BD0F801A7
:1002B000E40DF51D808191810A9691838083EFEF93
:1002C000CE1ADE0AF2E04F0E511C2AE0C216D1040B
:1002D00039F760E280E246D08D89682F4FD084E202
:1002E00045D1C12CD12CD5CF898D9A8D853893409D
:1002F000D8F6D3CE19D149D01ED04DD1C7D07894DD
:100300000895C098929880FDC09A81FD929A0895B0
:10031000882311F0969A0895969808952FB7F89427
:10032000882319F09798A19AA09A95B39C7F982B4F
:1003300095BB2FBF0895B89A81B3846C81BB969802
:100340009798A19AA09A80E0E9DF81E0DACF88232C
:1003500011F092E001C090E081E0611101C080E005
:10036000892BDCCF2FB7F89492B39F7C892B82BB6B
:1003700088B38F7C682B68BB2FBF08959FB7F89414
:100380001BBC8ABD68BD9FBF089587B3866387BBCA
:1003900081B3806381BB81EA8FBD82E08EBD89B766
:1003A000837C89BF60E280E2DDDF60E080E0E6CF51
:1003B0001F93CF93DF93EC01F4D0182F83E419D16E
:1003C00021D124B135B13983288382E412D11AD1E5
:1003D00024B135B13B832A83812FDF91CF911F91C7
:1003E000F2C01F920F920FB60F9211242F933F93DA
:1003F0004F935F936F937F938F939F93AF93BF932D
:10040000EF93FF9387B17894813619F08336A1F08A
:1004100027C08091630082FD02C080E601C082E6B1
:10042000F89495B19093650090916000909364006A
:1004300091E09093680012C08091630080FF02C039
:1004400080E601C082E6F89495B1909367009091A0
:1004500060009093660091E090936200789404C0ED
:1004600095B1909360008F5FD1D0FF91EF91BF91D4
:10047000AF919F918F917F916F915F914F913F913C
:100480002F910F900FBE0F901F9018959FB7F89463
:100490008BB78F778BBF85B7877F846085BF9FBF02
:1004A000A49885B3807185BB8B989398109269004E
:1004B00008950F931F93CF93DF93939A8B9A71D0E4
:1004C000082F84E496D014E0C0E0D0E09BD024B1A3
:1004D00035B1C20FD31F1150C9F7802F74D08B983C
:1004E0009398BE017695679576956795CB0196951D
:1004F00087959850A0D082EC860FDF91CF911F9105
:100500000F9108951F920F920FB60F9211248F939F
:1005100081E0809369008BB78F778BBF8F910F90AD
:100520000FBE0F901F90189512BC81E085BD89B752
:10053000806489BF81E983BD85B5877885BDBB9A15
:10054000C39808951F920F920FB60F9211248F93A4
:1005500084B58B5D84BD80916A008F5F80936A0053
:100560008F910F900FBE0F901F901895F89495B72C
:100570009F70906895BF789490916A00890F9091D0
:100580006A00981711F08895FACFF89485B78F779D
:1005900085BF789408958FEF8093610086E086B9D7
:1005A00008952FB7F89487B196B1392F387831F084
:1005B00093FF05C08093610086E886B98FEF2FBF57
:1005C0003699FECF08953FB7F8948F3F31F480916C
:1005D00061008F3F51F02EED01C026ED97B19827B5
:1005E000907C09F016B887B901C020E026B93FBF5A
:1005F000089597B19827907C09F016B896E896B9B7
:1006000087B90895369A3699FECF08952FB7F89492
:1006100096B197FF02C093FF0AC097B19827907CCC
:1006200009F016B8369916B887B99EED96B9809339
:1006300061002FBF0895AA1BBB1B51E107C0AA1F71
:10064000BB1FA617B70710F0A61BB70B881F991F73
:100650005A95A9F780959095BC01CD01089597FB17
:10066000072E16F4009406D077FD08D0E4DF07FCCF
:1006700005D03EF4909581959F4F089570956195B2
:080680007F4F0895F894FFCFAD
:00000001FF
