:1000000012C021C058C21FC076C21DC01CC01BC078
:100010001AC019C018C017C016C015C0BBC113C084
:1000200012C011C010C011241FBECFE5D4E0DEBF46
:10003000CDBF20E0A0E6B0E001C01D92AB36B20714
:10004000E1F702D0F8C2DCCFCF93DF93CDB7DEB7B4
:100050006A970FB6F894DEBF0FBECDBF24D1CE0194
:1000600001965C0186E1F50111928A95E9F7E12C90
:10007000F12CC12CD12C47E0842E912C188E1F8A94
:100080001A8E198ECE0147966CD1ECD1582E8F89DD
:10009000988D80569F4FB401BBD28B01898D9A8D6C
:1000A0008C599F4FB401B4D21B013B01093C11058F
:1000B00044F4043611053CF482E0FCD000E010E08A
:1000C00002C008EC10E0F9EC2F1631044CF424E6E1
:1000D0002216310444F482E0EDD0612C712C03C06F
:1000E00038EC632E712C60E280E215D1602F862DF2
:1000F0001ED128E7222E312C84E211D281E0281A69
:10010000310821143104C1F7601671061CF461E056
:1001100080E0F6D0061517051CF460E081E0F0D011
:100120006016710619F461E081E0EAD0611471048F
:1001300099F00035110514F482E0BCD091E5691600
:1001400071042CF00837110514F483E0B3D009379B
:10015000110514F081E0AED0E8EBEE16EBE0FE0600
:1001600029F481E0AED0E12CF12C0AC0FFE0EF16BB
:10017000F10431F480E0A5D090E1E92EF12C03C028
:100180002FEFE21AF20A852D8271E1F082E092D01F
:1001900061E080E0B5D084E2C2D160E081E0B0D01F
:1001A00060E180E1B8D068E788E7C1D008E512E0F7
:1001B00084E2B5D10150110901151105C9F760E0BC
:1001C00080E0A9D0852D8970E1F082E073D061E0F4
:1001D00080E096D084E2A3D160E081E091D060E13C
:1001E00080E199D06CE388E7A2D008E512E084E2D0
:1001F00096D10150110901151105C9F760E080E0A1
:100200008AD0852D847209F440C082E053D061E029
:1002100080E076D084E283D160E081E071D060E15B
:1002200080E179D068E78CE382D008E512E084E2CF
:1002300076D10150110901151105C9F760E080E080
:100240006AD023C08F89988D892B39F160E080E0D6
:1002500062D0F801E60DF71D808191810A969183A5
:1002600080838FEFC81AD80A92E0690E711CEAE009
:10027000CE16D10439F760E280E24DD08D89682F27
:1002800056D084E24CD1C12CD12C8601000F111F15
:100290000A0D1B1D612C712CD5CF898D9A8D853847
:1002A0009340A0F6EBCE19D149D01ED04DD1C7D086
:1002B00078940895C098929880FDC09A81FD929A92
:1002C0000895882311F0969A0895969808952FB767
:1002D000F894882319F09798A19AA09A95B39C7FD7
:1002E000982B95BB2FBF0895B89A81B3846C81BBBE
:1002F00096989798A19AA09A80E0E9DF81E0DACFFA
:10030000882311F092E001C090E081E0611101C00A
:1003100080E0892BDCCF2FB7F89492B39F7C892B98
:1003200082BB88B38F7C682B68BB2FBF08959FB7B3
:10033000F8941BBC8ABD68BD9FBF089587B38663D0
:1003400087BB81B3806381BB81EA8FBD82E08EBDB4
:1003500089B7837C89BF60E280E2DDDF60E080E016
:10036000E6CF1F93CF93DF93EC01F4D0182F83E4F3
:1003700019D121D124B135B13983288382E412D136
:100380001AD124B135B13B832A83812FDF91CF91DC
:100390001F91F2C01F920F920FB60F9211242F934C
:1003A0003F934F935F936F937F938F939F93AF93FD
:1003B000BF93EF93FF9387B17894813619F083361A
:1003C000A1F027C08091630082FD02C080E601C0D9
:1003D00082E6F89495B190936500909160009093B7
:1003E000640091E09093680012C08091630080FFE8
:1003F00002C080E601C082E6F89495B19093670050
:10040000909160009093660091E0909362007894E0
:1004100004C095B1909360008F5FD1D0FF91EF91B0
:10042000BF91AF919F918F917F916F915F914F910C
:100430003F912F910F900FBE0F901F9018959FB76F
:10044000F8948BB78F778BBF85B7877F846085BF24
:100450009FBFA49885B3807185BB8B9893981092A9
:10046000690008950F931F93CF93DF93939A8B9A0C
:1004700071D0082F84E496D014E0C0E0D0E09BD087
:1004800024B135B1C20FD31F1150C9F7802F74D0DA
:100490008B989398BE017695679576956795CB0175
:1004A000969587959850A0D082EC860FDF91CF91DA
:1004B0001F910F9108951F920F920FB60F92112462
:1004C0008F9381E0809369008BB78F778BBF8F917B
:1004D0000F900FBE0F901F90189512BC81E085BD44
:1004E00089B7806489BF81E983BD85B5877885BD7B
:1004F000BB9AC39808951F920F920FB60F921124C2
:100500008F9384B58B5D84BD80916A008F5F8093EB
:100510006A008F910F900FBE0F901F901895F8945E
:1005200095B79F70906895BF789490916A00890FF5
:1005300090916A00981711F08895FACFF89485B7D2
:100540008F7785BF789408958FEF8093610086E060
:1005500086B908952FB7F89487B196B1392F3878B6
:1005600031F093FF05C08093610086E886B98FEF74
:100570002FBF3699FECF08953FB7F8948F3F31F4DF
:10058000809161008F3F51F02EED01C026ED97B1B3
:100590009827907C09F016B887B901C020E026B9E9
:1005A0003FBF089597B19827907C09F016B896E858
:1005B00096B987B90895369A3699FECF08952FB720
:1005C000F89496B197FF02C093FF0AC097B198279D
:1005D000907C09F016B8369916B887B99EED96B991
:1005E000809361002FBF0895AA1BBB1B51E107C078
:1005F000AA1FBB1FA617B70710F0A61BB70B881FB3
:10060000991F5A95A9F780959095BC01CD01089541
:1006100097FB072E16F4009406D077FD08D0E4DF90
:1006200007FC05D03EF4909581959F4F08957095F5
:0A06300061957F4F0895F894FFCF05
:00000001FF
